{
  "abi": [
    {
      "anonymous": false,
      "inputs": [
        {
          "indexed": false,
          "internalType": "uint256",
          "name": "id",
          "type": "uint256"
        },
        {
          "indexed": false,
          "internalType": "bytes1",
          "name": "_type",
          "type": "bytes1"
        },
        {
          "indexed": false,
          "internalType": "address",
          "name": "channelAddress",
          "type": "address"
        }
      ],
      "name": "ChannelRegistered",
      "type": "event"
    },
    {
      "inputs": [],
      "name": "channelCount",
      "outputs": [
        {
          "internalType": "uint256",
          "name": "",
          "type": "uint256"
        }
      ],
      "stateMutability": "view",
      "type": "function"
    },
    {
      "inputs": [
        {
          "internalType": "uint256",
          "name": "id",
          "type": "uint256"
        }
      ],
      "name": "getChannel",
      "outputs": [
        {
          "components": [
            {
              "internalType": "address",
              "name": "channelAddress",
              "type": "address"
            },
            {
              "internalType": "bytes32",
              "name": "name",
              "type": "bytes32"
            },
            {
              "internalType": "bytes32",
              "name": "joiningRules",
              "type": "bytes32"
            },
            {
              "internalType": "bytes1",
              "name": "channelType",
              "type": "bytes1"
            }
          ],
          "internalType": "struct IRegistry.Channel",
          "name": "",
          "type": "tuple"
        }
      ],
      "stateMutability": "view",
      "type": "function"
    },
    {
      "inputs": [],
      "name": "getChannels",
      "outputs": [
        {
          "components": [
            {
              "internalType": "address",
              "name": "channelAddress",
              "type": "address"
            },
            {
              "internalType": "bytes32",
              "name": "name",
              "type": "bytes32"
            },
            {
              "internalType": "bytes32",
              "name": "joiningRules",
              "type": "bytes32"
            },
            {
              "internalType": "bytes1",
              "name": "channelType",
              "type": "bytes1"
            }
          ],
          "internalType": "struct IRegistry.Channel[]",
          "name": "",
          "type": "tuple[]"
        }
      ],
      "stateMutability": "view",
      "type": "function"
    },
    {
      "inputs": [
        {
          "internalType": "uint256",
          "name": "_channelId",
          "type": "uint256"
        }
      ],
      "name": "joinChannel",
      "outputs": [],
      "stateMutability": "nonpayable",
      "type": "function"
    },
    {
      "inputs": [
        {
          "internalType": "address",
          "name": "channelAddr",
          "type": "address"
        }
      ],
      "name": "registerChannel",
      "outputs": [],
      "stateMutability": "nonpayable",
      "type": "function"
    },
    {
      "inputs": [
        {
          "internalType": "uint256",
          "name": "",
          "type": "uint256"
        }
      ],
      "name": "registry",
      "outputs": [
        {
          "internalType": "address",
          "name": "",
          "type": "address"
        }
      ],
      "stateMutability": "view",
      "type": "function"
    },
    {
      "inputs": [
        {
          "internalType": "uint256",
          "name": "_channelId",
          "type": "uint256"
        },
        {
          "internalType": "bytes",
          "name": "contentCID",
          "type": "bytes"
        }
      ],
      "name": "sendMessage",
      "outputs": [],
      "stateMutability": "nonpayable",
      "type": "function"
    }
  ],
  "bytecode": {
    "object": "0x608060405234801561001057600080fd5b50610b4c806100206000396000f3fe608060405234801561001057600080fd5b506004361061007d5760003560e01c80639575f6ac1161005b5780639575f6ac146100eb578063acf8bf2a14610100578063cc200a0d14610117578063e289adcd1461012a57600080fd5b806310df54a0146100825780632819cc0c146100ab5780635893253c146100c0575b600080fd5b61009561009036600461088b565b61013d565b6040516100a291906108da565b60405180910390f35b6100be6100b936600461088b565b610345565b005b6100d36100ce36600461088b565b6103d1565b6040516001600160a01b0390911681526020016100a2565b6100f36103fb565b6040516100a291906108ee565b61010960015481565b6040519081526020016100a2565b6100be61012536600461093c565b610691565b6100be61013836600461096c565b610806565b60408051608081018252600080825260208201819052918101829052606081019190915260405180608001604052806000848154811061017f5761017f6109e8565b60009182526020808320909101546001600160a01b031683528154920191859081106101ad576101ad6109e8565b60009182526020918290200154604080516306fdde0360e01b815290516001600160a01b03909216926306fdde03926004808401938290030181865afa1580156101fb573d6000803e3d6000fd5b505050506040513d601f19601f8201168201806040525081019061021f91906109fe565b815260200160008481548110610237576102376109e8565b60009182526020918290200154604080516397bd0f0160e01b815290516001600160a01b03909216926397bd0f01926004808401938290030181865afa158015610285573d6000803e3d6000fd5b505050506040513d601f19601f820116820180604052508101906102a991906109fe565b8152602001600084815481106102c1576102c16109e8565b6000918252602091829020015460408051630aed701f60e11b815290516001600160a01b03909216926315dae03e926004808401938290030181865afa15801561030f573d6000803e3d6000fd5b505050506040513d601f19601f820116820180604052508101906103339190610a17565b6001600160f81b031916905292915050565b60008181548110610358576103586109e8565b600091825260208083209091015460408051928301815292825291516330b858b160e11b81526001600160a01b0390921691636170b1629161039c91600401610a41565b600060405180830381600087803b1580156103b657600080fd5b505af11580156103ca573d6000803e3d6000fd5b5050505050565b600081815481106103e157600080fd5b6000918252602090912001546001600160a01b0316905081565b6060600060015467ffffffffffffffff81111561041a5761041a610a8f565b60405190808252806020026020018201604052801561046c57816020015b6040805160808101825260008082526020808301829052928201819052606082015282526000199092019101816104385790505b50905060005b60015481101561068b5760405180608001604052806000838154811061049a5761049a6109e8565b60009182526020808320909101546001600160a01b031683528154920191849081106104c8576104c86109e8565b60009182526020918290200154604080516306fdde0360e01b815290516001600160a01b03909216926306fdde03926004808401938290030181865afa158015610516573d6000803e3d6000fd5b505050506040513d601f19601f8201168201806040525081019061053a91906109fe565b815260200160008381548110610552576105526109e8565b60009182526020918290200154604080516397bd0f0160e01b815290516001600160a01b03909216926397bd0f01926004808401938290030181865afa1580156105a0573d6000803e3d6000fd5b505050506040513d601f19601f820116820180604052508101906105c491906109fe565b8152602001600083815481106105dc576105dc6109e8565b6000918252602091829020015460408051630aed701f60e11b815290516001600160a01b03909216926315dae03e926004808401938290030181865afa15801561062a573d6000803e3d6000fd5b505050506040513d601f19601f8201168201806040525081019061064e9190610a17565b6001600160f81b03191681525082828151811061066d5761066d6109e8565b6020026020010181905250808061068390610abb565b915050610472565b50919050565b6000816001600160a01b03166315dae03e6040518163ffffffff1660e01b8152600401602060405180830381865afa1580156106d1573d6000803e3d6000fd5b505050506040513d601f19601f820116820180604052508101906106f59190610a17565b9050600760f882901c11156107475760405162461bcd60e51b8152602060048201526014602482015273496e76616c6964206368616e6e656c207479706560601b604482015260640160405180910390fd5b60008054600180820183558280527f290decd9548b62a8d60345a988386fc84ba6bc95484008f6362f93160ef3e56390910180546001600160a01b0319166001600160a01b03861617905580549161079e83610abb565b91905055507f40a53553c74c63b2191ec9fe7a7bbfe6f12c5fa1aad40c1f19da82ac762d4e4c600180546107d29190610ad4565b604080519182526001600160f81b0319841660208301526001600160a01b0385169082015260600160405180910390a15050565b60008381548110610819576108196109e8565b60009182526020909120015460405163104c8d4b60e31b81526001600160a01b03909116906382646a58906108549085908590600401610ae7565b600060405180830381600087803b15801561086e57600080fd5b505af1158015610882573d6000803e3d6000fd5b50505050505050565b60006020828403121561089d57600080fd5b5035919050565b80516001600160a01b0316825260208082015190830152604080820151908301526060908101516001600160f81b031916910152565b608081016108e882846108a4565b92915050565b6020808252825182820181905260009190848201906040850190845b818110156109305761091d8385516108a4565b928401926080929092019160010161090a565b50909695505050505050565b60006020828403121561094e57600080fd5b81356001600160a01b038116811461096557600080fd5b9392505050565b60008060006040848603121561098157600080fd5b83359250602084013567ffffffffffffffff808211156109a057600080fd5b818601915086601f8301126109b457600080fd5b8135818111156109c357600080fd5b8760208285010111156109d557600080fd5b6020830194508093505050509250925092565b634e487b7160e01b600052603260045260246000fd5b600060208284031215610a1057600080fd5b5051919050565b600060208284031215610a2957600080fd5b81516001600160f81b03198116811461096557600080fd5b600060208083528351808285015260005b81811015610a6e57858101830151858201604001528201610a52565b506000604082860101526040601f19601f8301168501019250505092915050565b634e487b7160e01b600052604160045260246000fd5b634e487b7160e01b600052601160045260246000fd5b600060018201610acd57610acd610aa5565b5060010190565b818103818111156108e8576108e8610aa5565b60208152816020820152818360408301376000818301604090810191909152601f909201601f1916010191905056fea26469706673582212200e837f39328e10718a53a70542a211ed1dc5bbcf00f9ead83b0bdafa28cd836b64736f6c63430008120033",
    "linkReferences": {}
  },
  "methodIdentifiers": {
    "channelCount()": "acf8bf2a",
    "getChannel(uint256)": "10df54a0",
    "getChannels()": "9575f6ac",
    "joinChannel(uint256)": "2819cc0c",
    "registerChannel(address)": "cc200a0d",
    "registry(uint256)": "5893253c",
    "sendMessage(uint256,bytes)": "e289adcd"
  },
  "id": 0
}