{
  "abi": [
    {
      "inputs": [
        {
          "internalType": "address",
          "name": "semaphore_",
          "type": "address"
        },
        {
          "internalType": "uint256",
          "name": "groupId_",
          "type": "uint256"
        },
        {
          "internalType": "bytes32",
          "name": "name_",
          "type": "bytes32"
        },
        {
          "internalType": "bytes32",
          "name": "joiningRules_",
          "type": "bytes32"
        }
      ],
      "stateMutability": "nonpayable",
      "type": "constructor"
    },
    {
      "anonymous": false,
      "inputs": [
        {
          "indexed": true,
          "internalType": "address",
          "name": "member",
          "type": "address"
        },
        {
          "indexed": false,
          "internalType": "string",
          "name": "pubkey",
          "type": "string"
        }
      ],
      "name": "MemberJoined",
      "type": "event"
    },
    {
      "anonymous": false,
      "inputs": [
        {
          "indexed": true,
          "internalType": "address",
          "name": "member",
          "type": "address"
        },
        {
          "indexed": false,
          "internalType": "string",
          "name": "cipherkey",
          "type": "string"
        }
      ],
      "name": "MemeberCredentials",
      "type": "event"
    },
    {
      "anonymous": false,
      "inputs": [
        {
          "indexed": true,
          "internalType": "uint256",
          "name": "id",
          "type": "uint256"
        },
        {
          "indexed": false,
          "internalType": "bytes32",
          "name": "contentCID",
          "type": "bytes32"
        }
      ],
      "name": "MessageSent",
      "type": "event"
    },
    {
      "inputs": [],
      "name": "_groupId",
      "outputs": [
        {
          "internalType": "uint256",
          "name": "",
          "type": "uint256"
        }
      ],
      "stateMutability": "view",
      "type": "function"
    },
    {
      "inputs": [],
      "name": "_name",
      "outputs": [
        {
          "internalType": "bytes32",
          "name": "",
          "type": "bytes32"
        }
      ],
      "stateMutability": "view",
      "type": "function"
    },
    {
      "inputs": [],
      "name": "_semaphore",
      "outputs": [
        {
          "internalType": "address",
          "name": "",
          "type": "address"
        }
      ],
      "stateMutability": "view",
      "type": "function"
    },
    {
      "inputs": [],
      "name": "getType",
      "outputs": [
        {
          "internalType": "bytes1",
          "name": "",
          "type": "bytes1"
        }
      ],
      "stateMutability": "pure",
      "type": "function"
    },
    {
      "inputs": [
        {
          "internalType": "string",
          "name": "pubkey",
          "type": "string"
        },
        {
          "internalType": "bytes",
          "name": "data",
          "type": "bytes"
        }
      ],
      "name": "join",
      "outputs": [],
      "stateMutability": "nonpayable",
      "type": "function"
    },
    {
      "inputs": [],
      "name": "messageCount",
      "outputs": [
        {
          "internalType": "uint256",
          "name": "",
          "type": "uint256"
        }
      ],
      "stateMutability": "view",
      "type": "function"
    },
    {
      "inputs": [],
      "name": "name",
      "outputs": [
        {
          "internalType": "bytes32",
          "name": "",
          "type": "bytes32"
        }
      ],
      "stateMutability": "view",
      "type": "function"
    },
    {
      "inputs": [
        {
          "internalType": "address",
          "name": "member",
          "type": "address"
        },
        {
          "internalType": "string",
          "name": "cipherkey",
          "type": "string"
        }
      ],
      "name": "postCreds",
      "outputs": [],
      "stateMutability": "nonpayable",
      "type": "function"
    },
    {
      "inputs": [
        {
          "internalType": "bytes",
          "name": "data",
          "type": "bytes"
        }
      ],
      "name": "sendMessage",
      "outputs": [],
      "stateMutability": "nonpayable",
      "type": "function"
    }
  ],
  "bytecode": {
    "object": "0x60e060405234801561001057600080fd5b506040516107e03803806107e083398101604081905261002f916100ad565b6001600160a01b038416608081905260a084905260c0839052604051639c11214160e01b81526004810185905260146024820152306044820152639c11214190606401600060405180830381600087803b15801561008c57600080fd5b505af11580156100a0573d6000803e3d6000fd5b50505050505050506100f8565b600080600080608085870312156100c357600080fd5b84516001600160a01b03811681146100da57600080fd5b60208601516040870151606090970151919890975090945092505050565b60805160a05160c05161069861014860003960008181609a015261018e01526000818160e701528181610209015261033c01526000818161013c01528181610236015261030f01526106986000f3fe608060405234801561001057600080fd5b50600436106100935760003560e01c80633dbcc8d1116100665780633dbcc8d11461011b5780635a3f43781461012457806374481f4f1461013757806382646a5814610176578063d28d88521461018957600080fd5b806306fdde031461009857806309406596146100cd5780630c568e06146100e257806315dae03e14610109575b600080fd5b7f00000000000000000000000000000000000000000000000000000000000000005b6040519081526020015b60405180910390f35b6100e06100db3660046104a1565b6101b0565b005b6100ba7f000000000000000000000000000000000000000000000000000000000000000081565b604051600160f81b81526020016100c4565b6100ba60005481565b6100e06101323660046104fd565b6101f5565b61015e7f000000000000000000000000000000000000000000000000000000000000000081565b6040516001600160a01b0390911681526020016100c4565b6100e0610184366004610557565b6102e0565b6100ba7f000000000000000000000000000000000000000000000000000000000000000081565b816001600160a01b03167f8df686ec0f7a71936a687c77c04cbf9de93ce9b2c94d4646d6197a89df8e2bba826040516101e99190610594565b60405180910390a25050565b6020810151604051631783efc360e01b81527f00000000000000000000000000000000000000000000000000000000000000006004820152602481018290527f00000000000000000000000000000000000000000000000000000000000000006001600160a01b031690631783efc390604401600060405180830381600087803b15801561028257600080fd5b505af1158015610296573d6000803e3d6000fd5b50505050336001600160a01b03167fd4a0b090df78a1c4f9456b377b34ef4dfac7251637b55d4b0a731a799c84a44c846040516102d39190610594565b60405180910390a2505050565b6020810151604080830151606084015160808501519251633bc778e360e01b8152919290916001600160a01b037f00000000000000000000000000000000000000000000000000000000000000001690633bc778e39061036e907f000000000000000000000000000000000000000000000000000000000000000090879089908890849089906004016105e2565b600060405180830381600087803b15801561038857600080fd5b505af115801561039c573d6000803e3d6000fd5b50506000805492509050806103b083610630565b919050555060016000546103c49190610649565b6040518581527f566b4c7dafade452ad83a8774760b43ca5b9ed644d9fe1b72b8f62834c75b4e49060200160405180910390a25050505050565b634e487b7160e01b600052604160045260246000fd5b600082601f83011261042557600080fd5b813567ffffffffffffffff80821115610440576104406103fe565b604051601f8301601f19908116603f01168101908282118183101715610468576104686103fe565b8160405283815286602085880101111561048157600080fd5b836020870160208301376000602085830101528094505050505092915050565b600080604083850312156104b457600080fd5b82356001600160a01b03811681146104cb57600080fd5b9150602083013567ffffffffffffffff8111156104e757600080fd5b6104f385828601610414565b9150509250929050565b6000806040838503121561051057600080fd5b823567ffffffffffffffff8082111561052857600080fd5b61053486838701610414565b9350602085013591508082111561054a57600080fd5b506104f385828601610414565b60006020828403121561056957600080fd5b813567ffffffffffffffff81111561058057600080fd5b61058c84828501610414565b949350505050565b600060208083528351808285015260005b818110156105c1578581018301518582016040015282016105a5565b506000604082860101526040601f19601f8301168501019250505092915050565b60006101a0820190508782528660208301528560408301528460608301528360808301526101008360a0840137979650505050505050565b634e487b7160e01b600052601160045260246000fd5b6000600182016106425761064261061a565b5060010190565b8181038181111561065c5761065c61061a565b9291505056fea2646970667358221220533589a51fb2eb1757fed1ded8557bd75b4df9c2e62b638ca67ea68cfa5908ae64736f6c63430008120033",
    "linkReferences": {}
  },
  "methodIdentifiers": {
    "_groupId()": "0c568e06",
    "_name()": "d28d8852",
    "_semaphore()": "74481f4f",
    "getType()": "15dae03e",
    "join(string,bytes)": "5a3f4378",
    "messageCount()": "3dbcc8d1",
    "name()": "06fdde03",
    "postCreds(address,string)": "09406596",
    "sendMessage(bytes)": "82646a58"
  },
  "id": 20
}