{
  "abi": [
    {
      "inputs": [
        {
          "internalType": "bytes32",
          "name": "name_",
          "type": "bytes32"
        },
        {
          "internalType": "bytes32",
          "name": "joiningRules_",
          "type": "bytes32"
        },
        {
          "internalType": "bytes1",
          "name": "type_",
          "type": "bytes1"
        }
      ],
      "stateMutability": "nonpayable",
      "type": "constructor"
    },
    {
      "anonymous": false,
      "inputs": [
        {
          "indexed": true,
          "internalType": "address",
          "name": "member",
          "type": "address"
        },
        {
          "indexed": false,
          "internalType": "string",
          "name": "pubkey",
          "type": "string"
        }
      ],
      "name": "MemberJoined",
      "type": "event"
    },
    {
      "anonymous": false,
      "inputs": [
        {
          "indexed": true,
          "internalType": "address",
          "name": "member",
          "type": "address"
        },
        {
          "indexed": false,
          "internalType": "string",
          "name": "cipherkey",
          "type": "string"
        }
      ],
      "name": "MemeberCredentials",
      "type": "event"
    },
    {
      "anonymous": false,
      "inputs": [
        {
          "indexed": true,
          "internalType": "uint256",
          "name": "id",
          "type": "uint256"
        },
        {
          "indexed": false,
          "internalType": "bytes32",
          "name": "contentCID",
          "type": "bytes32"
        }
      ],
      "name": "MessageSent",
      "type": "event"
    },
    {
      "inputs": [],
      "name": "_joiningRules",
      "outputs": [
        {
          "internalType": "bytes32",
          "name": "",
          "type": "bytes32"
        }
      ],
      "stateMutability": "view",
      "type": "function"
    },
    {
      "inputs": [],
      "name": "_name",
      "outputs": [
        {
          "internalType": "bytes32",
          "name": "",
          "type": "bytes32"
        }
      ],
      "stateMutability": "view",
      "type": "function"
    },
    {
      "inputs": [],
      "name": "_type",
      "outputs": [
        {
          "internalType": "bytes1",
          "name": "",
          "type": "bytes1"
        }
      ],
      "stateMutability": "view",
      "type": "function"
    },
    {
      "inputs": [],
      "name": "getJoiningRules",
      "outputs": [
        {
          "internalType": "bytes32",
          "name": "",
          "type": "bytes32"
        }
      ],
      "stateMutability": "view",
      "type": "function"
    },
    {
      "inputs": [],
      "name": "getType",
      "outputs": [
        {
          "internalType": "bytes1",
          "name": "",
          "type": "bytes1"
        }
      ],
      "stateMutability": "view",
      "type": "function"
    },
    {
      "inputs": [
        {
          "internalType": "string",
          "name": "pubkey",
          "type": "string"
        },
        {
          "internalType": "bytes",
          "name": "",
          "type": "bytes"
        }
      ],
      "name": "join",
      "outputs": [],
      "stateMutability": "nonpayable",
      "type": "function"
    },
    {
      "inputs": [],
      "name": "name",
      "outputs": [
        {
          "internalType": "bytes32",
          "name": "",
          "type": "bytes32"
        }
      ],
      "stateMutability": "view",
      "type": "function"
    },
    {
      "inputs": [
        {
          "internalType": "address",
          "name": "member",
          "type": "address"
        },
        {
          "internalType": "string",
          "name": "cipherkey",
          "type": "string"
        }
      ],
      "name": "postCreds",
      "outputs": [],
      "stateMutability": "nonpayable",
      "type": "function"
    },
    {
      "inputs": [
        {
          "internalType": "bytes",
          "name": "data",
          "type": "bytes"
        }
      ],
      "name": "sendMessage",
      "outputs": [],
      "stateMutability": "nonpayable",
      "type": "function"
    }
  ],
  "bytecode": {
    "object": "0x60e060405234801561001057600080fd5b5060405161058338038061058383398101604081905261002f9161004a565b60809290925260a0526001600160f81b03191660c052610091565b60008060006060848603121561005f57600080fd5b83516020850151604086015191945092506001600160f81b03198116811461008657600080fd5b809150509250925092565b60805160a05160c0516104b06100d36000396000818160e401526101bc015260008181610122015261016c015260008181609a015261019501526104b06000f3fe608060405234801561001057600080fd5b50600436106100935760003560e01c80635a3f4378116100665780635a3f43781461014457806382646a581461015757806397bd0f011461016a578063d28d885214610190578063d85b2704146101b757600080fd5b806306fdde031461009857806309406596146100cd57806315dae03e146100e25780631edc1e151461011d575b600080fd5b7f00000000000000000000000000000000000000000000000000000000000000005b6040519081526020015b60405180910390f35b6100e06100db366004610339565b6101de565b005b7f00000000000000000000000000000000000000000000000000000000000000005b6040516001600160f81b031990911681526020016100c4565b6100ba7f000000000000000000000000000000000000000000000000000000000000000081565b6100e0610152366004610395565b610223565b6100e06101653660046103ef565b61025c565b7f00000000000000000000000000000000000000000000000000000000000000006100ba565b6100ba7f000000000000000000000000000000000000000000000000000000000000000081565b6101047f000000000000000000000000000000000000000000000000000000000000000081565b816001600160a01b03167f8df686ec0f7a71936a687c77c04cbf9de93ce9b2c94d4646d6197a89df8e2bba82604051610217919061042c565b60405180910390a25050565b336001600160a01b03167fd4a0b090df78a1c4f9456b377b34ef4dfac7251637b55d4b0a731a799c84a44c83604051610217919061042c565b60208101516040516000907f566b4c7dafade452ad83a8774760b43ca5b9ed644d9fe1b72b8f62834c75b4e4906102179084815260200190565b634e487b7160e01b600052604160045260246000fd5b600082601f8301126102bd57600080fd5b813567ffffffffffffffff808211156102d8576102d8610296565b604051601f8301601f19908116603f0116810190828211818310171561030057610300610296565b8160405283815286602085880101111561031957600080fd5b836020870160208301376000602085830101528094505050505092915050565b6000806040838503121561034c57600080fd5b82356001600160a01b038116811461036357600080fd5b9150602083013567ffffffffffffffff81111561037f57600080fd5b61038b858286016102ac565b9150509250929050565b600080604083850312156103a857600080fd5b823567ffffffffffffffff808211156103c057600080fd5b6103cc868387016102ac565b935060208501359150808211156103e257600080fd5b5061038b858286016102ac565b60006020828403121561040157600080fd5b813567ffffffffffffffff81111561041857600080fd5b610424848285016102ac565b949350505050565b600060208083528351808285015260005b818110156104595785810183015185820160400152820161043d565b506000604082860101526040601f19601f830116850101925050509291505056fea2646970667358221220b5b9c2833219833b71a8b4a5cd2fe8368532900ab1b94d52573569be259a779764736f6c63430008120033",
    "linkReferences": {}
  },
  "methodIdentifiers": {
    "_joiningRules()": "1edc1e15",
    "_name()": "d28d8852",
    "_type()": "d85b2704",
    "getJoiningRules()": "97bd0f01",
    "getType()": "15dae03e",
    "join(string,bytes)": "5a3f4378",
    "name()": "06fdde03",
    "postCreds(address,string)": "09406596",
    "sendMessage(bytes)": "82646a58"
  },
  "id": 19
}