{
  "abi": [
    {
      "anonymous": false,
      "inputs": [
        {
          "indexed": false,
          "internalType": "uint256",
          "name": "id",
          "type": "uint256"
        },
        {
          "indexed": false,
          "internalType": "bytes1",
          "name": "_type",
          "type": "bytes1"
        },
        {
          "indexed": false,
          "internalType": "address",
          "name": "channelAddress",
          "type": "address"
        }
      ],
      "name": "ChannelRegistered",
      "type": "event"
    },
    {
      "inputs": [],
      "name": "channelCount",
      "outputs": [
        {
          "internalType": "uint256",
          "name": "",
          "type": "uint256"
        }
      ],
      "stateMutability": "view",
      "type": "function"
    },
    {
      "inputs": [
        {
          "internalType": "bytes32",
          "name": "name_",
          "type": "bytes32"
        },
        {
          "internalType": "bytes32",
          "name": "joiningRules_",
          "type": "bytes32"
        },
        {
          "internalType": "bytes1",
          "name": "channelType_",
          "type": "bytes1"
        }
      ],
      "name": "createChannel",
      "outputs": [],
      "stateMutability": "nonpayable",
      "type": "function"
    },
    {
      "inputs": [
        {
          "internalType": "uint256",
          "name": "id",
          "type": "uint256"
        }
      ],
      "name": "getChannel",
      "outputs": [
        {
          "components": [
            {
              "internalType": "address",
              "name": "channelAddress",
              "type": "address"
            },
            {
              "internalType": "bytes32",
              "name": "name",
              "type": "bytes32"
            },
            {
              "internalType": "bytes32",
              "name": "joiningRules",
              "type": "bytes32"
            },
            {
              "internalType": "bytes1",
              "name": "channelType",
              "type": "bytes1"
            }
          ],
          "internalType": "struct IRegistry.Channel",
          "name": "",
          "type": "tuple"
        }
      ],
      "stateMutability": "view",
      "type": "function"
    },
    {
      "inputs": [],
      "name": "getChannels",
      "outputs": [
        {
          "components": [
            {
              "internalType": "address",
              "name": "channelAddress",
              "type": "address"
            },
            {
              "internalType": "bytes32",
              "name": "name",
              "type": "bytes32"
            },
            {
              "internalType": "bytes32",
              "name": "joiningRules",
              "type": "bytes32"
            },
            {
              "internalType": "bytes1",
              "name": "channelType",
              "type": "bytes1"
            }
          ],
          "internalType": "struct IRegistry.Channel[]",
          "name": "",
          "type": "tuple[]"
        }
      ],
      "stateMutability": "view",
      "type": "function"
    },
    {
      "inputs": [
        {
          "internalType": "address",
          "name": "channelAddr",
          "type": "address"
        }
      ],
      "name": "registerChannel",
      "outputs": [],
      "stateMutability": "nonpayable",
      "type": "function"
    },
    {
      "inputs": [
        {
          "internalType": "uint256",
          "name": "",
          "type": "uint256"
        }
      ],
      "name": "registry",
      "outputs": [
        {
          "internalType": "address",
          "name": "",
          "type": "address"
        }
      ],
      "stateMutability": "view",
      "type": "function"
    },
    {
      "inputs": [
        {
          "internalType": "uint256",
          "name": "_channelId",
          "type": "uint256"
        },
        {
          "internalType": "bytes",
          "name": "contentCID",
          "type": "bytes"
        }
      ],
      "name": "sendMessage",
      "outputs": [],
      "stateMutability": "nonpayable",
      "type": "function"
    }
  ],
  "bytecode": {
    "object": "0x608060405234801561001057600080fd5b506111ce806100206000396000f3fe608060405234801561001057600080fd5b506004361061007d5760003560e01c8063acf8bf2a1161005b578063acf8bf2a146100eb578063c74aa7ba14610102578063cc200a0d14610117578063e289adcd1461012a57600080fd5b806310df54a0146100825780635893253c146100ab5780639575f6ac146100d6575b600080fd5b6100956100903660046108ed565b61013d565b6040516100a2919061093c565b60405180910390f35b6100be6100b93660046108ed565b610345565b6040516001600160a01b0390911681526020016100a2565b6100de61036f565b6040516100a29190610950565b6100f460015481565b6040519081526020016100a2565b6101156101103660046109b7565b610605565b005b6101156101253660046109f0565b6106fd565b610115610138366004610a20565b61085b565b60408051608081018252600080825260208201819052918101829052606081019190915260405180608001604052806000848154811061017f5761017f610a9c565b60009182526020808320909101546001600160a01b031683528154920191859081106101ad576101ad610a9c565b60009182526020918290200154604080516306fdde0360e01b815290516001600160a01b03909216926306fdde03926004808401938290030181865afa1580156101fb573d6000803e3d6000fd5b505050506040513d601f19601f8201168201806040525081019061021f9190610ab2565b81526020016000848154811061023757610237610a9c565b60009182526020918290200154604080516397bd0f0160e01b815290516001600160a01b03909216926397bd0f01926004808401938290030181865afa158015610285573d6000803e3d6000fd5b505050506040513d601f19601f820116820180604052508101906102a99190610ab2565b8152602001600084815481106102c1576102c1610a9c565b6000918252602091829020015460408051630aed701f60e11b815290516001600160a01b03909216926315dae03e926004808401938290030181865afa15801561030f573d6000803e3d6000fd5b505050506040513d601f19601f820116820180604052508101906103339190610acb565b6001600160f81b031916905292915050565b6000818154811061035557600080fd5b6000918252602090912001546001600160a01b0316905081565b6060600060015467ffffffffffffffff81111561038e5761038e610ae8565b6040519080825280602002602001820160405280156103e057816020015b6040805160808101825260008082526020808301829052928201819052606082015282526000199092019101816103ac5790505b50905060005b6001548110156105ff5760405180608001604052806000838154811061040e5761040e610a9c565b60009182526020808320909101546001600160a01b0316835281549201918490811061043c5761043c610a9c565b60009182526020918290200154604080516306fdde0360e01b815290516001600160a01b03909216926306fdde03926004808401938290030181865afa15801561048a573d6000803e3d6000fd5b505050506040513d601f19601f820116820180604052508101906104ae9190610ab2565b8152602001600083815481106104c6576104c6610a9c565b60009182526020918290200154604080516397bd0f0160e01b815290516001600160a01b03909216926397bd0f01926004808401938290030181865afa158015610514573d6000803e3d6000fd5b505050506040513d601f19601f820116820180604052508101906105389190610ab2565b81526020016000838154811061055057610550610a9c565b6000918252602091829020015460408051630aed701f60e11b815290516001600160a01b03909216926315dae03e926004808401938290030181865afa15801561059e573d6000803e3d6000fd5b505050506040513d601f19601f820116820180604052508101906105c29190610acb565b6001600160f81b0319168152508282815181106105e1576105e1610a9c565b602002602001018190525080806105f790610b14565b9150506103e6565b50919050565b6000838383604051610616906108e0565b92835260208301919091526001600160f81b0319166040820152606001604051809103906000f08015801561064f573d6000803e3d6000fd5b5060008054600180820183558280527f290decd9548b62a8d60345a988386fc84ba6bc95484008f6362f93160ef3e56390910180546001600160a01b0319166001600160a01b0385161790558054929350906106aa83610b14565b91905055507f40a53553c74c63b2191ec9fe7a7bbfe6f12c5fa1aad40c1f19da82ac762d4e4c600180546106de9190610b2d565b83836040516106ef93929190610b40565b60405180910390a150505050565b6000816001600160a01b03166315dae03e6040518163ffffffff1660e01b8152600401602060405180830381865afa15801561073d573d6000803e3d6000fd5b505050506040513d601f19601f820116820180604052508101906107619190610acb565b9050600760f882901c11156107b35760405162461bcd60e51b8152602060048201526014602482015273496e76616c6964206368616e6e656c207479706560601b604482015260640160405180910390fd5b60008054600180820183558280527f290decd9548b62a8d60345a988386fc84ba6bc95484008f6362f93160ef3e56390910180546001600160a01b0319166001600160a01b03861617905580549161080a83610b14565b91905055507f40a53553c74c63b2191ec9fe7a7bbfe6f12c5fa1aad40c1f19da82ac762d4e4c6001805461083e9190610b2d565b828460405161084f93929190610b40565b60405180910390a15050565b6000838154811061086e5761086e610a9c565b60009182526020909120015460405163104c8d4b60e31b81526001600160a01b03909116906382646a58906108a99085908590600401610b69565b600060405180830381600087803b1580156108c357600080fd5b505af11580156108d7573d6000803e3d6000fd5b50505050505050565b61060080610b9983390190565b6000602082840312156108ff57600080fd5b5035919050565b80516001600160a01b0316825260208082015190830152604080820151908301526060908101516001600160f81b031916910152565b6080810161094a8284610906565b92915050565b6020808252825182820181905260009190848201906040850190845b818110156109925761097f838551610906565b928401926080929092019160010161096c565b50909695505050505050565b6001600160f81b0319811681146109b457600080fd5b50565b6000806000606084860312156109cc57600080fd5b833592506020840135915060408401356109e58161099e565b809150509250925092565b600060208284031215610a0257600080fd5b81356001600160a01b0381168114610a1957600080fd5b9392505050565b600080600060408486031215610a3557600080fd5b83359250602084013567ffffffffffffffff80821115610a5457600080fd5b818601915086601f830112610a6857600080fd5b813581811115610a7757600080fd5b876020828501011115610a8957600080fd5b6020830194508093505050509250925092565b634e487b7160e01b600052603260045260246000fd5b600060208284031215610ac457600080fd5b5051919050565b600060208284031215610add57600080fd5b8151610a198161099e565b634e487b7160e01b600052604160045260246000fd5b634e487b7160e01b600052601160045260246000fd5b600060018201610b2657610b26610afe565b5060010190565b8181038181111561094a5761094a610afe565b9283526001600160f81b03199190911660208301526001600160a01b0316604082015260600190565b60208152816020820152818360408301376000818301604090810191909152601f909201601f1916010191905056fe60e060405234801561001057600080fd5b5060405161060038038061060083398101604081905261002f9161004a565b60809290925260a0526001600160f81b03191660c052610091565b60008060006060848603121561005f57600080fd5b83516020850151604086015191945092506001600160f81b03198116811461008657600080fd5b809150509250925092565b60805160a05160c05161052d6100d36000396000818160cf01526101bc01526000818161010d0152610146015260008181609a0152610195015261052d6000f3fe608060405234801561001057600080fd5b50600436106100935760003560e01c806397bd0f011161006657806397bd0f01146101445780639b07bcf81461016a578063c7c285c81461017d578063d28d885214610190578063d85b2704146101b757600080fd5b806306fdde031461009857806315dae03e146100cd5780631edc1e151461010857806382646a581461012f575b600080fd5b7f00000000000000000000000000000000000000000000000000000000000000005b6040519081526020015b60405180910390f35b7f00000000000000000000000000000000000000000000000000000000000000005b6040516001600160f81b031990911681526020016100c4565b6100ba7f000000000000000000000000000000000000000000000000000000000000000081565b61014261013d366004610347565b6101de565b005b7f00000000000000000000000000000000000000000000000000000000000000006100ba565b610142610178366004610384565b610224565b61014261018b3660046103e0565b61025d565b6100ba7f000000000000000000000000000000000000000000000000000000000000000081565b6100ef7f000000000000000000000000000000000000000000000000000000000000000081565b60208101516040516000907f566b4c7dafade452ad83a8774760b43ca5b9ed644d9fe1b72b8f62834c75b4e4906102189084815260200190565b60405180910390a25050565b816001600160a01b03167f33a2e7951e851e008d4bbe2eddb4ec6245c9a6b4f18f3ef422b6a2f0975c8102826040516102189190610478565b6040805180820182528351815260208085015190820152905133917f7b678fcac01c2cf274b32ab5a442c464e3b9c6183d01561f222a7a9435fff9c49161021891906104c6565b634e487b7160e01b600052604160045260246000fd5b600082601f8301126102cb57600080fd5b813567ffffffffffffffff808211156102e6576102e66102a4565b604051601f8301601f19908116603f0116810190828211818310171561030e5761030e6102a4565b8160405283815286602085880101111561032757600080fd5b836020870160208301376000602085830101528094505050505092915050565b60006020828403121561035957600080fd5b813567ffffffffffffffff81111561037057600080fd5b61037c848285016102ba565b949350505050565b6000806040838503121561039757600080fd5b82356001600160a01b03811681146103ae57600080fd5b9150602083013567ffffffffffffffff8111156103ca57600080fd5b6103d6858286016102ba565b9150509250929050565b600080606083850312156103f357600080fd5b83601f84011261040257600080fd5b6040516040810167ffffffffffffffff8282108183111715610426576104266102a4565b6040918252829186018781111561043c57600080fd5b865b8181101561045657803584526020938401930161043e565b509294509135918083111561046a57600080fd5b50506103d6858286016102ba565b600060208083528351808285015260005b818110156104a557858101830151858201604001528201610489565b506000604082860101526040601f19601f8301168501019250505092915050565b60408101818360005b60028110156104ee5781518352602092830192909101906001016104cf565b5050509291505056fea264697066735822122039d6ea169d9c5ff5e4eb1b5c314b57aeac8137bdfa6d2b9706dc64d1124021eb64736f6c63430008120033a2646970667358221220914b1c07e7d33176f8d379be1960f11e8dcd761f48face0e6c2a0796dcacb8c364736f6c63430008120033",
    "linkReferences": {}
  },
  "methodIdentifiers": {
    "channelCount()": "acf8bf2a",
    "createChannel(bytes32,bytes32,bytes1)": "c74aa7ba",
    "getChannel(uint256)": "10df54a0",
    "getChannels()": "9575f6ac",
    "registerChannel(address)": "cc200a0d",
    "registry(uint256)": "5893253c",
    "sendMessage(uint256,bytes)": "e289adcd"
  },
  "id": 18
}