{
  "abi": [
    {
      "anonymous": false,
      "inputs": [
        {
          "indexed": false,
          "internalType": "uint256",
          "name": "id",
          "type": "uint256"
        },
        {
          "indexed": false,
          "internalType": "bytes1",
          "name": "_type",
          "type": "bytes1"
        },
        {
          "indexed": false,
          "internalType": "address",
          "name": "channelAddress",
          "type": "address"
        }
      ],
      "name": "ChannelRegistered",
      "type": "event"
    },
    {
      "inputs": [],
      "name": "channelCount",
      "outputs": [
        {
          "internalType": "uint256",
          "name": "",
          "type": "uint256"
        }
      ],
      "stateMutability": "view",
      "type": "function"
    },
    {
      "inputs": [
        {
          "internalType": "bytes32",
          "name": "name_",
          "type": "bytes32"
        },
        {
          "internalType": "bytes1",
          "name": "channelType_",
          "type": "bytes1"
        }
      ],
      "name": "createChannel",
      "outputs": [],
      "stateMutability": "nonpayable",
      "type": "function"
    },
    {
      "inputs": [
        {
          "internalType": "uint256",
          "name": "id",
          "type": "uint256"
        }
      ],
      "name": "getChannel",
      "outputs": [
        {
          "components": [
            {
              "internalType": "address",
              "name": "channelAddress",
              "type": "address"
            },
            {
              "internalType": "bytes32",
              "name": "name",
              "type": "bytes32"
            },
            {
              "internalType": "bytes1",
              "name": "channelType",
              "type": "bytes1"
            }
          ],
          "internalType": "struct IRegistry.Channel",
          "name": "",
          "type": "tuple"
        }
      ],
      "stateMutability": "view",
      "type": "function"
    },
    {
      "inputs": [],
      "name": "getChannels",
      "outputs": [
        {
          "components": [
            {
              "internalType": "address",
              "name": "channelAddress",
              "type": "address"
            },
            {
              "internalType": "bytes32",
              "name": "name",
              "type": "bytes32"
            },
            {
              "internalType": "bytes1",
              "name": "channelType",
              "type": "bytes1"
            }
          ],
          "internalType": "struct IRegistry.Channel[]",
          "name": "",
          "type": "tuple[]"
        }
      ],
      "stateMutability": "view",
      "type": "function"
    },
    {
      "inputs": [
        {
          "internalType": "address",
          "name": "channelAddr",
          "type": "address"
        }
      ],
      "name": "registerChannel",
      "outputs": [],
      "stateMutability": "nonpayable",
      "type": "function"
    },
    {
      "inputs": [
        {
          "internalType": "uint256",
          "name": "",
          "type": "uint256"
        }
      ],
      "name": "registry",
      "outputs": [
        {
          "internalType": "address",
          "name": "",
          "type": "address"
        }
      ],
      "stateMutability": "view",
      "type": "function"
    },
    {
      "inputs": [
        {
          "internalType": "uint256",
          "name": "_channelId",
          "type": "uint256"
        },
        {
          "internalType": "bytes",
          "name": "contentCID",
          "type": "bytes"
        }
      ],
      "name": "sendMessage",
      "outputs": [],
      "stateMutability": "nonpayable",
      "type": "function"
    }
  ],
  "bytecode": {
    "object": "0x608060405234801561001057600080fd5b50610f92806100206000396000f3fe608060405234801561001057600080fd5b506004361061007d5760003560e01c80639575f6ac1161005b5780639575f6ac146100eb578063acf8bf2a14610100578063cc200a0d14610117578063e289adcd1461012a57600080fd5b806310df54a01461008257806347b7d986146100ab5780635893253c146100c0575b600080fd5b6100956100903660046107c1565b61013d565b6040516100a29190610806565b60405180910390f35b6100be6100b9366004610833565b6102b4565b005b6100d36100ce3660046107c1565b6103a2565b6040516001600160a01b0390911681526020016100a2565b6100f36103cc565b6040516100a29190610863565b61010960015481565b6040519081526020016100a2565b6100be6101253660046108b1565b6105d1565b6100be6101383660046108e1565b61072f565b60408051606081018252600080825260208201819052918101919091526040518060600160405280600084815481106101785761017861095d565b60009182526020808320909101546001600160a01b031683528154920191859081106101a6576101a661095d565b60009182526020918290200154604080516306fdde0360e01b815290516001600160a01b03909216926306fdde03926004808401938290030181865afa1580156101f4573d6000803e3d6000fd5b505050506040513d601f19601f820116820180604052508101906102189190610973565b8152602001600084815481106102305761023061095d565b6000918252602091829020015460408051630aed701f60e11b815290516001600160a01b03909216926315dae03e926004808401938290030181865afa15801561027e573d6000803e3d6000fd5b505050506040513d601f19601f820116820180604052508101906102a2919061098c565b6001600160f81b031916905292915050565b600082826040516102c4906107b4565b9182526001600160f81b0319166020820152604001604051809103906000f0801580156102f5573d6000803e3d6000fd5b5060008054600180820183558280527f290decd9548b62a8d60345a988386fc84ba6bc95484008f6362f93160ef3e56390910180546001600160a01b0319166001600160a01b038516179055805492935090610350836109bf565b91905055507f40a53553c74c63b2191ec9fe7a7bbfe6f12c5fa1aad40c1f19da82ac762d4e4c6001805461038491906109d8565b8383604051610395939291906109eb565b60405180910390a1505050565b600081815481106103b257600080fd5b6000918252602090912001546001600160a01b0316905081565b6060600060015467ffffffffffffffff8111156103eb576103eb610a14565b60405190808252806020026020018201604052801561043657816020015b60408051606081018252600080825260208083018290529282015282526000199092019101816104095790505b50905060005b6001548110156105cb576040518060600160405280600083815481106104645761046461095d565b60009182526020808320909101546001600160a01b031683528154920191849081106104925761049261095d565b60009182526020918290200154604080516306fdde0360e01b815290516001600160a01b03909216926306fdde03926004808401938290030181865afa1580156104e0573d6000803e3d6000fd5b505050506040513d601f19601f820116820180604052508101906105049190610973565b81526020016000838154811061051c5761051c61095d565b6000918252602091829020015460408051630aed701f60e11b815290516001600160a01b03909216926315dae03e926004808401938290030181865afa15801561056a573d6000803e3d6000fd5b505050506040513d601f19601f8201168201806040525081019061058e919061098c565b6001600160f81b0319168152508282815181106105ad576105ad61095d565b602002602001018190525080806105c3906109bf565b91505061043c565b50919050565b6000816001600160a01b03166315dae03e6040518163ffffffff1660e01b8152600401602060405180830381865afa158015610611573d6000803e3d6000fd5b505050506040513d601f19601f82011682018060405250810190610635919061098c565b9050600760f882901c11156106875760405162461bcd60e51b8152602060048201526014602482015273496e76616c6964206368616e6e656c207479706560601b604482015260640160405180910390fd5b60008054600180820183558280527f290decd9548b62a8d60345a988386fc84ba6bc95484008f6362f93160ef3e56390910180546001600160a01b0319166001600160a01b0386161790558054916106de836109bf565b91905055507f40a53553c74c63b2191ec9fe7a7bbfe6f12c5fa1aad40c1f19da82ac762d4e4c6001805461071291906109d8565b8284604051610723939291906109eb565b60405180910390a15050565b600083815481106107425761074261095d565b60009182526020909120015460405163104c8d4b60e31b81526001600160a01b03909116906382646a589061077d9085908590600401610a2a565b600060405180830381600087803b15801561079757600080fd5b505af11580156107ab573d6000803e3d6000fd5b50505050505050565b61050380610a5a83390190565b6000602082840312156107d357600080fd5b5035919050565b80516001600160a01b03168252602080820151908301526040908101516001600160f81b031916910152565b6060810161081482846107da565b92915050565b6001600160f81b03198116811461083057600080fd5b50565b6000806040838503121561084657600080fd5b8235915060208301356108588161081a565b809150509250929050565b6020808252825182820181905260009190848201906040850190845b818110156108a5576108928385516107da565b928401926060929092019160010161087f565b50909695505050505050565b6000602082840312156108c357600080fd5b81356001600160a01b03811681146108da57600080fd5b9392505050565b6000806000604084860312156108f657600080fd5b83359250602084013567ffffffffffffffff8082111561091557600080fd5b818601915086601f83011261092957600080fd5b81358181111561093857600080fd5b87602082850101111561094a57600080fd5b6020830194508093505050509250925092565b634e487b7160e01b600052603260045260246000fd5b60006020828403121561098557600080fd5b5051919050565b60006020828403121561099e57600080fd5b81516108da8161081a565b634e487b7160e01b600052601160045260246000fd5b6000600182016109d1576109d16109a9565b5060010190565b81810381811115610814576108146109a9565b9283526001600160f81b03199190911660208301526001600160a01b0316604082015260600190565b634e487b7160e01b600052604160045260246000fd5b60208152816020820152818360408301376000818301604090810191909152601f909201601f1916010191905056fe60c060405234801561001057600080fd5b5060405161050338038061050383398101604081905261002f91610047565b6080919091526001600160f81b03191660a052610085565b6000806040838503121561005a57600080fd5b825160208401519092506001600160f81b03198116811461007a57600080fd5b809150509250929050565b60805160a05161044d6100b66000396000818160ce015261015901526000818160840152610132015261044d6000f3fe608060405234801561001057600080fd5b506004361061007d5760003560e01c80635a3f43781161005b5780635a3f43781461010757806382646a581461011a578063d28d88521461012d578063d85b27041461015457600080fd5b806306fdde031461008257806309406596146100b757806315dae03e146100cc575b600080fd5b7f00000000000000000000000000000000000000000000000000000000000000005b6040519081526020015b60405180910390f35b6100ca6100c53660046102d6565b61017b565b005b7f00000000000000000000000000000000000000000000000000000000000000005b6040516001600160f81b031990911681526020016100ae565b6100ca610115366004610332565b6101c0565b6100ca61012836600461038c565b6101f9565b6100a47f000000000000000000000000000000000000000000000000000000000000000081565b6100ee7f000000000000000000000000000000000000000000000000000000000000000081565b816001600160a01b03167f8df686ec0f7a71936a687c77c04cbf9de93ce9b2c94d4646d6197a89df8e2bba826040516101b491906103c9565b60405180910390a25050565b336001600160a01b03167fd4a0b090df78a1c4f9456b377b34ef4dfac7251637b55d4b0a731a799c84a44c836040516101b491906103c9565b60208101516040516000907f566b4c7dafade452ad83a8774760b43ca5b9ed644d9fe1b72b8f62834c75b4e4906101b49084815260200190565b634e487b7160e01b600052604160045260246000fd5b600082601f83011261025a57600080fd5b813567ffffffffffffffff8082111561027557610275610233565b604051601f8301601f19908116603f0116810190828211818310171561029d5761029d610233565b816040528381528660208588010111156102b657600080fd5b836020870160208301376000602085830101528094505050505092915050565b600080604083850312156102e957600080fd5b82356001600160a01b038116811461030057600080fd5b9150602083013567ffffffffffffffff81111561031c57600080fd5b61032885828601610249565b9150509250929050565b6000806040838503121561034557600080fd5b823567ffffffffffffffff8082111561035d57600080fd5b61036986838701610249565b9350602085013591508082111561037f57600080fd5b5061032885828601610249565b60006020828403121561039e57600080fd5b813567ffffffffffffffff8111156103b557600080fd5b6103c184828501610249565b949350505050565b600060208083528351808285015260005b818110156103f6578581018301518582016040015282016103da565b506000604082860101526040601f19601f830116850101925050509291505056fea26469706673582212203e8f45fcedd6779a3eb00bc456c764e03d494f8a164bc1d3a5b1c9cc8874f09164736f6c63430008120033a26469706673582212209950e58f79227d5d47e013f597e8f21d3d310a54148b8a631307d317df4bed3064736f6c63430008120033",
    "linkReferences": {}
  },
  "methodIdentifiers": {
    "channelCount()": "acf8bf2a",
    "createChannel(bytes32,bytes1)": "47b7d986",
    "getChannel(uint256)": "10df54a0",
    "getChannels()": "9575f6ac",
    "registerChannel(address)": "cc200a0d",
    "registry(uint256)": "5893253c",
    "sendMessage(uint256,bytes)": "e289adcd"
  },
  "id": 18
}